{
  "_format": "hh-sol-artifact-1",
  "contractName": "FunToken",
  "sourceName": "contracts/FunToken.sol",
  "abi": [
    {
      "inputs": [
        {
          "internalType": "uint256",
          "name": "_initialSupply",
          "type": "uint256"
        }
      ],
      "stateMutability": "nonpayable",
      "type": "constructor"
    },
    {
      "anonymous": false,
      "inputs": [
        {
          "indexed": true,
          "internalType": "address",
          "name": "_owner",
          "type": "address"
        },
        {
          "indexed": true,
          "internalType": "address",
          "name": "_spender",
          "type": "address"
        },
        {
          "indexed": false,
          "internalType": "uint256",
          "name": "_value",
          "type": "uint256"
        }
      ],
      "name": "Approval",
      "type": "event"
    },
    {
      "anonymous": false,
      "inputs": [
        {
          "indexed": true,
          "internalType": "address",
          "name": "_from",
          "type": "address"
        },
        {
          "indexed": true,
          "internalType": "address",
          "name": "_to",
          "type": "address"
        },
        {
          "indexed": false,
          "internalType": "uint256",
          "name": "_value",
          "type": "uint256"
        }
      ],
      "name": "Transfer",
      "type": "event"
    },
    {
      "inputs": [],
      "name": "_userId",
      "outputs": [
        {
          "internalType": "uint256",
          "name": "",
          "type": "uint256"
        }
      ],
      "stateMutability": "view",
      "type": "function"
    },
    {
      "inputs": [
        {
          "internalType": "address",
          "name": "",
          "type": "address"
        },
        {
          "internalType": "address",
          "name": "",
          "type": "address"
        }
      ],
      "name": "allowance",
      "outputs": [
        {
          "internalType": "uint256",
          "name": "",
          "type": "uint256"
        }
      ],
      "stateMutability": "view",
      "type": "function"
    },
    {
      "inputs": [
        {
          "internalType": "address",
          "name": "_spender",
          "type": "address"
        },
        {
          "internalType": "uint256",
          "name": "_value",
          "type": "uint256"
        }
      ],
      "name": "approve",
      "outputs": [
        {
          "internalType": "bool",
          "name": "success",
          "type": "bool"
        }
      ],
      "stateMutability": "nonpayable",
      "type": "function"
    },
    {
      "inputs": [
        {
          "internalType": "address",
          "name": "",
          "type": "address"
        }
      ],
      "name": "balanceOf",
      "outputs": [
        {
          "internalType": "uint256",
          "name": "",
          "type": "uint256"
        }
      ],
      "stateMutability": "view",
      "type": "function"
    },
    {
      "inputs": [],
      "name": "getTokenHolder",
      "outputs": [
        {
          "internalType": "address[]",
          "name": "",
          "type": "address[]"
        }
      ],
      "stateMutability": "view",
      "type": "function"
    },
    {
      "inputs": [
        {
          "internalType": "address",
          "name": "_address",
          "type": "address"
        }
      ],
      "name": "getTokenHolderData",
      "outputs": [
        {
          "internalType": "uint256",
          "name": "",
          "type": "uint256"
        },
        {
          "internalType": "address",
          "name": "",
          "type": "address"
        },
        {
          "internalType": "address",
          "name": "",
          "type": "address"
        },
        {
          "internalType": "uint256",
          "name": "",
          "type": "uint256"
        },
        {
          "internalType": "bool",
          "name": "",
          "type": "bool"
        }
      ],
      "stateMutability": "view",
      "type": "function"
    },
    {
      "inputs": [
        {
          "internalType": "uint256",
          "name": "",
          "type": "uint256"
        }
      ],
      "name": "holderToken",
      "outputs": [
        {
          "internalType": "address",
          "name": "",
          "type": "address"
        }
      ],
      "stateMutability": "view",
      "type": "function"
    },
    {
      "inputs": [],
      "name": "name",
      "outputs": [
        {
          "internalType": "string",
          "name": "",
          "type": "string"
        }
      ],
      "stateMutability": "view",
      "type": "function"
    },
    {
      "inputs": [],
      "name": "ownerOfContract",
      "outputs": [
        {
          "internalType": "address",
          "name": "",
          "type": "address"
        }
      ],
      "stateMutability": "view",
      "type": "function"
    },
    {
      "inputs": [],
      "name": "standart",
      "outputs": [
        {
          "internalType": "string",
          "name": "",
          "type": "string"
        }
      ],
      "stateMutability": "view",
      "type": "function"
    },
    {
      "inputs": [],
      "name": "symbol",
      "outputs": [
        {
          "internalType": "string",
          "name": "",
          "type": "string"
        }
      ],
      "stateMutability": "view",
      "type": "function"
    },
    {
      "inputs": [
        {
          "internalType": "address",
          "name": "",
          "type": "address"
        }
      ],
      "name": "tokenHolderInfos",
      "outputs": [
        {
          "internalType": "uint256",
          "name": "_tokenId",
          "type": "uint256"
        },
        {
          "internalType": "address",
          "name": "_from",
          "type": "address"
        },
        {
          "internalType": "address",
          "name": "_to",
          "type": "address"
        },
        {
          "internalType": "uint256",
          "name": "_totalToken",
          "type": "uint256"
        },
        {
          "internalType": "bool",
          "name": "_tokenHolder",
          "type": "bool"
        }
      ],
      "stateMutability": "view",
      "type": "function"
    },
    {
      "inputs": [],
      "name": "totalSupply",
      "outputs": [
        {
          "internalType": "uint256",
          "name": "",
          "type": "uint256"
        }
      ],
      "stateMutability": "view",
      "type": "function"
    },
    {
      "inputs": [
        {
          "internalType": "address",
          "name": "_to",
          "type": "address"
        },
        {
          "internalType": "uint256",
          "name": "_value",
          "type": "uint256"
        }
      ],
      "name": "transfer",
      "outputs": [
        {
          "internalType": "bool",
          "name": "success",
          "type": "bool"
        }
      ],
      "stateMutability": "nonpayable",
      "type": "function"
    },
    {
      "inputs": [
        {
          "internalType": "address",
          "name": "_from",
          "type": "address"
        },
        {
          "internalType": "address",
          "name": "_to",
          "type": "address"
        },
        {
          "internalType": "uint256",
          "name": "_value",
          "type": "uint256"
        }
      ],
      "name": "transferFrom",
      "outputs": [
        {
          "internalType": "bool",
          "name": "success",
          "type": "bool"
        }
      ],
      "stateMutability": "nonpayable",
      "type": "function"
    }
  ],
  "bytecode": "0x60806040526040518060400160405280600881526020017f46756e546f6b656e000000000000000000000000000000000000000000000000815250600090816200004a91906200043b565b506040518060400160405280600381526020017f46554e0000000000000000000000000000000000000000000000000000000000815250600190816200009191906200043b565b506040518060400160405280600e81526020017f46756e546f6b656e20762e302e3100000000000000000000000000000000000081525060029081620000d891906200043b565b50348015620000e657600080fd5b50604051620019e6380380620019e683398181016040528101906200010c919062000558565b33600560006101000a81548173ffffffffffffffffffffffffffffffffffffffff021916908373ffffffffffffffffffffffffffffffffffffffff1602179055508060096000600560009054906101000a900473ffffffffffffffffffffffffffffffffffffffff1673ffffffffffffffffffffffffffffffffffffffff1673ffffffffffffffffffffffffffffffffffffffff1681526020019081526020016000208190555080600381905550506200058a565b600081519050919050565b7f4e487b7100000000000000000000000000000000000000000000000000000000600052604160045260246000fd5b7f4e487b7100000000000000000000000000000000000000000000000000000000600052602260045260246000fd5b600060028204905060018216806200024357607f821691505b602082108103620002595762000258620001fb565b5b50919050565b60008190508160005260206000209050919050565b60006020601f8301049050919050565b600082821b905092915050565b600060088302620002c37fffffffffffffffffffffffffffffffffffffffffffffffffffffffffffffffff8262000284565b620002cf868362000284565b95508019841693508086168417925050509392505050565b6000819050919050565b6000819050919050565b60006200031c620003166200031084620002e7565b620002f1565b620002e7565b9050919050565b6000819050919050565b6200033883620002fb565b62000350620003478262000323565b84845462000291565b825550505050565b600090565b6200036762000358565b620003748184846200032d565b505050565b5b818110156200039c57620003906000826200035d565b6001810190506200037a565b5050565b601f821115620003eb57620003b5816200025f565b620003c08462000274565b81016020851015620003d0578190505b620003e8620003df8562000274565b83018262000379565b50505b505050565b600082821c905092915050565b60006200041060001984600802620003f0565b1980831691505092915050565b60006200042b8383620003fd565b9150826002028217905092915050565b6200044682620001c1565b67ffffffffffffffff811115620004625762000461620001cc565b5b6200046e82546200022a565b6200047b828285620003a0565b600060209050601f831160018114620004b357600084156200049e578287015190505b620004aa85826200041d565b8655506200051a565b601f198416620004c3866200025f565b60005b82811015620004ed57848901518255600182019150602085019450602081019050620004c6565b868310156200050d578489015162000509601f891682620003fd565b8355505b6001600288020188555050505b505050505050565b600080fd5b6200053281620002e7565b81146200053e57600080fd5b50565b600081519050620005528162000527565b92915050565b60006020828403121562000571576200057062000522565b5b6000620005818482850162000541565b91505092915050565b61144c806200059a6000396000f3fe608060405234801561001057600080fd5b50600436106100f55760003560e01c8063760b06c511610097578063ba8e355711610066578063ba8e3557146102ca578063bc4530e7146102e8578063dd62ed3e14610306578063f54095a714610336576100f5565b8063760b06c51461021857806382b682631461024857806395d89b411461027c578063a9059cbb1461029a576100f5565b806323b872dd116100d357806323b872dd1461016657806329cc66ed14610196578063468229ae146101ca57806370a08231146101e8576100f5565b806306fdde03146100fa578063095ea7b31461011857806318160ddd14610148575b600080fd5b610102610354565b60405161010f9190610ec6565b60405180910390f35b610132600480360381019061012d9190610f81565b6103e2565b60405161013f9190610fdc565b60405180910390f35b6101506104d4565b60405161015d9190611006565b60405180910390f35b610180600480360381019061017b9190611021565b6104da565b60405161018d9190610fdc565b60405180910390f35b6101b060048036038101906101ab9190611074565b61068b565b6040516101c19594939291906110b0565b60405180910390f35b6101d261070e565b6040516101df9190611103565b60405180910390f35b61020260048036038101906101fd9190611074565b610734565b60405161020f9190611006565b60405180910390f35b610232600480360381019061022d919061111e565b61074c565b60405161023f9190611103565b60405180910390f35b610262600480360381019061025d9190611074565b61078b565b6040516102739594939291906110b0565b60405180910390f35b610284610942565b6040516102919190610ec6565b60405180910390f35b6102b460048036038101906102af9190610f81565b6109d0565b6040516102c19190610fdc565b60405180910390f35b6102d2610cd5565b6040516102df9190611209565b60405180910390f35b6102f0610d63565b6040516102fd9190611006565b60405180910390f35b610320600480360381019061031b919061122b565b610d69565b60405161032d9190611006565b60405180910390f35b61033e610d8e565b60405161034b9190610ec6565b60405180910390f35b600080546103619061129a565b80601f016020809104026020016040519081016040528092919081815260200182805461038d9061129a565b80156103da5780601f106103af576101008083540402835291602001916103da565b820191906000526020600020905b8154815290600101906020018083116103bd57829003601f168201915b505050505081565b600081600860003373ffffffffffffffffffffffffffffffffffffffff1673ffffffffffffffffffffffffffffffffffffffff16815260200190815260200160002060008573ffffffffffffffffffffffffffffffffffffffff1673ffffffffffffffffffffffffffffffffffffffff168152602001908152602001600020819055508273ffffffffffffffffffffffffffffffffffffffff163373ffffffffffffffffffffffffffffffffffffffff167f8c5be1e5ebec7d5bd14f71427d1e84f3dd0314c0f7b2291e5b200ac8c7c3b925846040516104c29190611006565b60405180910390a36001905092915050565b60035481565b600081600960008673ffffffffffffffffffffffffffffffffffffffff1673ffffffffffffffffffffffffffffffffffffffff168152602001908152602001600020600082825461052b91906112fa565b9250508190555081600960008573ffffffffffffffffffffffffffffffffffffffff1673ffffffffffffffffffffffffffffffffffffffff1681526020019081526020016000206000828254610581919061132e565b9250508190555081600860008673ffffffffffffffffffffffffffffffffffffffff1673ffffffffffffffffffffffffffffffffffffffff16815260200190815260200160002060003373ffffffffffffffffffffffffffffffffffffffff1673ffffffffffffffffffffffffffffffffffffffff168152602001908152602001600020600082825461061491906112fa565b925050819055508273ffffffffffffffffffffffffffffffffffffffff168473ffffffffffffffffffffffffffffffffffffffff167fddf252ad1be2c89b69c2b068fc378daa952ba7f163c4a11628f55a4df523b3ef846040516106789190611006565b60405180910390a3600190509392505050565b60076020528060005260406000206000915090508060000154908060010160009054906101000a900473ffffffffffffffffffffffffffffffffffffffff16908060020160009054906101000a900473ffffffffffffffffffffffffffffffffffffffff16908060030154908060040160009054906101000a900460ff16905085565b600560009054906101000a900473ffffffffffffffffffffffffffffffffffffffff1681565b60096020528060005260406000206000915090505481565b6006818154811061075c57600080fd5b906000526020600020016000915054906101000a900473ffffffffffffffffffffffffffffffffffffffff1681565b6000806000806000600760008773ffffffffffffffffffffffffffffffffffffffff1673ffffffffffffffffffffffffffffffffffffffff16815260200190815260200160002060000154600760008873ffffffffffffffffffffffffffffffffffffffff1673ffffffffffffffffffffffffffffffffffffffff16815260200190815260200160002060010160009054906101000a900473ffffffffffffffffffffffffffffffffffffffff16600760008973ffffffffffffffffffffffffffffffffffffffff1673ffffffffffffffffffffffffffffffffffffffff16815260200190815260200160002060020160009054906101000a900473ffffffffffffffffffffffffffffffffffffffff16600760008a73ffffffffffffffffffffffffffffffffffffffff1673ffffffffffffffffffffffffffffffffffffffff16815260200190815260200160002060030154600760008b73ffffffffffffffffffffffffffffffffffffffff1673ffffffffffffffffffffffffffffffffffffffff16815260200190815260200160002060040160009054906101000a900460ff169450945094509450945091939590929450565b6001805461094f9061129a565b80601f016020809104026020016040519081016040528092919081815260200182805461097b9061129a565b80156109c85780601f1061099d576101008083540402835291602001916109c8565b820191906000526020600020905b8154815290600101906020018083116109ab57829003601f168201915b505050505081565b600081600960003373ffffffffffffffffffffffffffffffffffffffff1673ffffffffffffffffffffffffffffffffffffffff168152602001908152602001600020541015610a54576040517f08c379a0000000000000000000000000000000000000000000000000000000008152600401610a4b906113ae565b60405180910390fd5b610a5c610e1c565b81600960003373ffffffffffffffffffffffffffffffffffffffff1673ffffffffffffffffffffffffffffffffffffffff1681526020019081526020016000206000828254610aab91906112fa565b9250508190555081600960008573ffffffffffffffffffffffffffffffffffffffff1673ffffffffffffffffffffffffffffffffffffffff1681526020019081526020016000206000828254610b01919061132e565b925050819055506000600760008573ffffffffffffffffffffffffffffffffffffffff1673ffffffffffffffffffffffffffffffffffffffff1681526020019081526020016000209050838160020160006101000a81548173ffffffffffffffffffffffffffffffffffffffff021916908373ffffffffffffffffffffffffffffffffffffffff160217905550338160010160006101000a81548173ffffffffffffffffffffffffffffffffffffffff021916908373ffffffffffffffffffffffffffffffffffffffff16021790555082816003018190555060018160040160006101000a81548160ff02191690831515021790555060045481600001819055506006849080600181540180825580915050600190039060005260206000200160009091909190916101000a81548173ffffffffffffffffffffffffffffffffffffffff021916908373ffffffffffffffffffffffffffffffffffffffff1602179055508373ffffffffffffffffffffffffffffffffffffffff163373ffffffffffffffffffffffffffffffffffffffff167fddf252ad1be2c89b69c2b068fc378daa952ba7f163c4a11628f55a4df523b3ef85604051610cc29190611006565b60405180910390a3600191505092915050565b60606006805480602002602001604051908101604052809291908181526020018280548015610d5957602002820191906000526020600020905b8160009054906101000a900473ffffffffffffffffffffffffffffffffffffffff1673ffffffffffffffffffffffffffffffffffffffff1681526020019060010190808311610d0f575b5050505050905090565b60045481565b6008602052816000526040600020602052806000526040600020600091509150505481565b60028054610d9b9061129a565b80601f0160208091040260200160405190810160405280929190818152602001828054610dc79061129a565b8015610e145780601f10610de957610100808354040283529160200191610e14565b820191906000526020600020905b815481529060010190602001808311610df757829003601f168201915b505050505081565b60046000815480929190610e2f906113ce565b9190505550565b600081519050919050565b600082825260208201905092915050565b60005b83811015610e70578082015181840152602081019050610e55565b60008484015250505050565b6000601f19601f8301169050919050565b6000610e9882610e36565b610ea28185610e41565b9350610eb2818560208601610e52565b610ebb81610e7c565b840191505092915050565b60006020820190508181036000830152610ee08184610e8d565b905092915050565b600080fd5b600073ffffffffffffffffffffffffffffffffffffffff82169050919050565b6000610f1882610eed565b9050919050565b610f2881610f0d565b8114610f3357600080fd5b50565b600081359050610f4581610f1f565b92915050565b6000819050919050565b610f5e81610f4b565b8114610f6957600080fd5b50565b600081359050610f7b81610f55565b92915050565b60008060408385031215610f9857610f97610ee8565b5b6000610fa685828601610f36565b9250506020610fb785828601610f6c565b9150509250929050565b60008115159050919050565b610fd681610fc1565b82525050565b6000602082019050610ff16000830184610fcd565b92915050565b61100081610f4b565b82525050565b600060208201905061101b6000830184610ff7565b92915050565b60008060006060848603121561103a57611039610ee8565b5b600061104886828701610f36565b935050602061105986828701610f36565b925050604061106a86828701610f6c565b9150509250925092565b60006020828403121561108a57611089610ee8565b5b600061109884828501610f36565b91505092915050565b6110aa81610f0d565b82525050565b600060a0820190506110c56000830188610ff7565b6110d260208301876110a1565b6110df60408301866110a1565b6110ec6060830185610ff7565b6110f96080830184610fcd565b9695505050505050565b600060208201905061111860008301846110a1565b92915050565b60006020828403121561113457611133610ee8565b5b600061114284828501610f6c565b91505092915050565b600081519050919050565b600082825260208201905092915050565b6000819050602082019050919050565b61118081610f0d565b82525050565b60006111928383611177565b60208301905092915050565b6000602082019050919050565b60006111b68261114b565b6111c08185611156565b93506111cb83611167565b8060005b838110156111fc5781516111e38882611186565b97506111ee8361119e565b9250506001810190506111cf565b5085935050505092915050565b6000602082019050818103600083015261122381846111ab565b905092915050565b6000806040838503121561124257611241610ee8565b5b600061125085828601610f36565b925050602061126185828601610f36565b9150509250929050565b7f4e487b7100000000000000000000000000000000000000000000000000000000600052602260045260246000fd5b600060028204905060018216806112b257607f821691505b6020821081036112c5576112c461126b565b5b50919050565b7f4e487b7100000000000000000000000000000000000000000000000000000000600052601160045260246000fd5b600061130582610f4b565b915061131083610f4b565b9250828203905081811115611328576113276112cb565b5b92915050565b600061133982610f4b565b915061134483610f4b565b925082820190508082111561135c5761135b6112cb565b5b92915050565b7f6e6f74206d6f6e65790000000000000000000000000000000000000000000000600082015250565b6000611398600983610e41565b91506113a382611362565b602082019050919050565b600060208201905081810360008301526113c78161138b565b9050919050565b60006113d982610f4b565b91507fffffffffffffffffffffffffffffffffffffffffffffffffffffffffffffffff820361140b5761140a6112cb565b5b60018201905091905056fea26469706673582212203715ca4c371791bb20a0bf8b2aa4154c853599e7c6fbd15272b1838936b6cacc64736f6c63430008120033",
  "linkReferences": {},
  "deployedLinkReferences": {}
}